{
  "_format": "hh-sol-artifact-1",
  "contractName": "EventCertificate",
  "sourceName": "contracts/NFTEvent.sol",
  "abi": [
    {
      "inputs": [],
      "stateMutability": "nonpayable",
      "type": "constructor"
    },
    {
      "inputs": [],
      "name": "ERC721EnumerableForbiddenBatchMint",
      "type": "error"
    },
    {
      "inputs": [
        {
          "internalType": "address",
          "name": "sender",
          "type": "address"
        },
        {
          "internalType": "uint256",
          "name": "tokenId",
          "type": "uint256"
        },
        {
          "internalType": "address",
          "name": "owner",
          "type": "address"
        }
      ],
      "name": "ERC721IncorrectOwner",
      "type": "error"
    },
    {
      "inputs": [
        {
          "internalType": "address",
          "name": "operator",
          "type": "address"
        },
        {
          "internalType": "uint256",
          "name": "tokenId",
          "type": "uint256"
        }
      ],
      "name": "ERC721InsufficientApproval",
      "type": "error"
    },
    {
      "inputs": [
        {
          "internalType": "address",
          "name": "approver",
          "type": "address"
        }
      ],
      "name": "ERC721InvalidApprover",
      "type": "error"
    },
    {
      "inputs": [
        {
          "internalType": "address",
          "name": "operator",
          "type": "address"
        }
      ],
      "name": "ERC721InvalidOperator",
      "type": "error"
    },
    {
      "inputs": [
        {
          "internalType": "address",
          "name": "owner",
          "type": "address"
        }
      ],
      "name": "ERC721InvalidOwner",
      "type": "error"
    },
    {
      "inputs": [
        {
          "internalType": "address",
          "name": "receiver",
          "type": "address"
        }
      ],
      "name": "ERC721InvalidReceiver",
      "type": "error"
    },
    {
      "inputs": [
        {
          "internalType": "address",
          "name": "sender",
          "type": "address"
        }
      ],
      "name": "ERC721InvalidSender",
      "type": "error"
    },
    {
      "inputs": [
        {
          "internalType": "uint256",
          "name": "tokenId",
          "type": "uint256"
        }
      ],
      "name": "ERC721NonexistentToken",
      "type": "error"
    },
    {
      "inputs": [
        {
          "internalType": "address",
          "name": "owner",
          "type": "address"
        },
        {
          "internalType": "uint256",
          "name": "index",
          "type": "uint256"
        }
      ],
      "name": "ERC721OutOfBoundsIndex",
      "type": "error"
    },
    {
      "inputs": [
        {
          "internalType": "address",
          "name": "owner",
          "type": "address"
        }
      ],
      "name": "OwnableInvalidOwner",
      "type": "error"
    },
    {
      "inputs": [
        {
          "internalType": "address",
          "name": "account",
          "type": "address"
        }
      ],
      "name": "OwnableUnauthorizedAccount",
      "type": "error"
    },
    {
      "anonymous": false,
      "inputs": [
        {
          "indexed": true,
          "internalType": "address",
          "name": "owner",
          "type": "address"
        },
        {
          "indexed": true,
          "internalType": "address",
          "name": "approved",
          "type": "address"
        },
        {
          "indexed": true,
          "internalType": "uint256",
          "name": "tokenId",
          "type": "uint256"
        }
      ],
      "name": "Approval",
      "type": "event"
    },
    {
      "anonymous": false,
      "inputs": [
        {
          "indexed": true,
          "internalType": "address",
          "name": "owner",
          "type": "address"
        },
        {
          "indexed": true,
          "internalType": "address",
          "name": "operator",
          "type": "address"
        },
        {
          "indexed": false,
          "internalType": "bool",
          "name": "approved",
          "type": "bool"
        }
      ],
      "name": "ApprovalForAll",
      "type": "event"
    },
    {
      "anonymous": false,
      "inputs": [
        {
          "indexed": true,
          "internalType": "address",
          "name": "previousOwner",
          "type": "address"
        },
        {
          "indexed": true,
          "internalType": "address",
          "name": "newOwner",
          "type": "address"
        }
      ],
      "name": "OwnershipTransferred",
      "type": "event"
    },
    {
      "anonymous": false,
      "inputs": [
        {
          "indexed": true,
          "internalType": "address",
          "name": "from",
          "type": "address"
        },
        {
          "indexed": true,
          "internalType": "address",
          "name": "to",
          "type": "address"
        },
        {
          "indexed": true,
          "internalType": "uint256",
          "name": "tokenId",
          "type": "uint256"
        }
      ],
      "name": "Transfer",
      "type": "event"
    },
    {
      "inputs": [
        {
          "internalType": "address",
          "name": "to",
          "type": "address"
        },
        {
          "internalType": "uint256",
          "name": "tokenId",
          "type": "uint256"
        }
      ],
      "name": "approve",
      "outputs": [],
      "stateMutability": "nonpayable",
      "type": "function"
    },
    {
      "inputs": [
        {
          "internalType": "address",
          "name": "owner",
          "type": "address"
        }
      ],
      "name": "balanceOf",
      "outputs": [
        {
          "internalType": "uint256",
          "name": "",
          "type": "uint256"
        }
      ],
      "stateMutability": "view",
      "type": "function"
    },
    {
      "inputs": [
        {
          "internalType": "uint256",
          "name": "",
          "type": "uint256"
        }
      ],
      "name": "eventDetails",
      "outputs": [
        {
          "internalType": "string",
          "name": "eventName",
          "type": "string"
        },
        {
          "internalType": "string",
          "name": "eventDescription",
          "type": "string"
        },
        {
          "internalType": "uint256",
          "name": "eventTime",
          "type": "uint256"
        },
        {
          "internalType": "address",
          "name": "nameHolder",
          "type": "address"
        }
      ],
      "stateMutability": "view",
      "type": "function"
    },
    {
      "inputs": [
        {
          "internalType": "uint256",
          "name": "tokenId",
          "type": "uint256"
        }
      ],
      "name": "getApproved",
      "outputs": [
        {
          "internalType": "address",
          "name": "",
          "type": "address"
        }
      ],
      "stateMutability": "view",
      "type": "function"
    },
    {
      "inputs": [
        {
          "internalType": "uint256",
          "name": "tokenId",
          "type": "uint256"
        }
      ],
      "name": "getNFTDetails",
      "outputs": [
        {
          "components": [
            {
              "internalType": "string",
              "name": "eventName",
              "type": "string"
            },
            {
              "internalType": "string",
              "name": "eventDescription",
              "type": "string"
            },
            {
              "internalType": "uint256",
              "name": "eventTime",
              "type": "uint256"
            },
            {
              "internalType": "address",
              "name": "nameHolder",
              "type": "address"
            }
          ],
          "internalType": "struct EventCertificate.EventDetails",
          "name": "",
          "type": "tuple"
        }
      ],
      "stateMutability": "view",
      "type": "function"
    },
    {
      "inputs": [
        {
          "internalType": "address",
          "name": "owner",
          "type": "address"
        },
        {
          "internalType": "address",
          "name": "operator",
          "type": "address"
        }
      ],
      "name": "isApprovedForAll",
      "outputs": [
        {
          "internalType": "bool",
          "name": "",
          "type": "bool"
        }
      ],
      "stateMutability": "view",
      "type": "function"
    },
    {
      "inputs": [
        {
          "internalType": "address",
          "name": "_nameHolder",
          "type": "address"
        }
      ],
      "name": "mintCertificate",
      "outputs": [],
      "stateMutability": "nonpayable",
      "type": "function"
    },
    {
      "inputs": [],
      "name": "name",
      "outputs": [
        {
          "internalType": "string",
          "name": "",
          "type": "string"
        }
      ],
      "stateMutability": "view",
      "type": "function"
    },
    {
      "inputs": [],
      "name": "nextTokenId",
      "outputs": [
        {
          "internalType": "uint256",
          "name": "",
          "type": "uint256"
        }
      ],
      "stateMutability": "view",
      "type": "function"
    },
    {
      "inputs": [],
      "name": "owner",
      "outputs": [
        {
          "internalType": "address",
          "name": "",
          "type": "address"
        }
      ],
      "stateMutability": "view",
      "type": "function"
    },
    {
      "inputs": [
        {
          "internalType": "uint256",
          "name": "tokenId",
          "type": "uint256"
        }
      ],
      "name": "ownerOf",
      "outputs": [
        {
          "internalType": "address",
          "name": "",
          "type": "address"
        }
      ],
      "stateMutability": "view",
      "type": "function"
    },
    {
      "inputs": [],
      "name": "renounceOwnership",
      "outputs": [],
      "stateMutability": "nonpayable",
      "type": "function"
    },
    {
      "inputs": [
        {
          "internalType": "address",
          "name": "from",
          "type": "address"
        },
        {
          "internalType": "address",
          "name": "to",
          "type": "address"
        },
        {
          "internalType": "uint256",
          "name": "tokenId",
          "type": "uint256"
        }
      ],
      "name": "safeTransferFrom",
      "outputs": [],
      "stateMutability": "nonpayable",
      "type": "function"
    },
    {
      "inputs": [
        {
          "internalType": "address",
          "name": "from",
          "type": "address"
        },
        {
          "internalType": "address",
          "name": "to",
          "type": "address"
        },
        {
          "internalType": "uint256",
          "name": "tokenId",
          "type": "uint256"
        },
        {
          "internalType": "bytes",
          "name": "data",
          "type": "bytes"
        }
      ],
      "name": "safeTransferFrom",
      "outputs": [],
      "stateMutability": "nonpayable",
      "type": "function"
    },
    {
      "inputs": [
        {
          "internalType": "address",
          "name": "operator",
          "type": "address"
        },
        {
          "internalType": "bool",
          "name": "approved",
          "type": "bool"
        }
      ],
      "name": "setApprovalForAll",
      "outputs": [],
      "stateMutability": "nonpayable",
      "type": "function"
    },
    {
      "inputs": [
        {
          "internalType": "bytes4",
          "name": "interfaceId",
          "type": "bytes4"
        }
      ],
      "name": "supportsInterface",
      "outputs": [
        {
          "internalType": "bool",
          "name": "",
          "type": "bool"
        }
      ],
      "stateMutability": "view",
      "type": "function"
    },
    {
      "inputs": [],
      "name": "symbol",
      "outputs": [
        {
          "internalType": "string",
          "name": "",
          "type": "string"
        }
      ],
      "stateMutability": "view",
      "type": "function"
    },
    {
      "inputs": [
        {
          "internalType": "uint256",
          "name": "index",
          "type": "uint256"
        }
      ],
      "name": "tokenByIndex",
      "outputs": [
        {
          "internalType": "uint256",
          "name": "",
          "type": "uint256"
        }
      ],
      "stateMutability": "view",
      "type": "function"
    },
    {
      "inputs": [
        {
          "internalType": "address",
          "name": "owner",
          "type": "address"
        },
        {
          "internalType": "uint256",
          "name": "index",
          "type": "uint256"
        }
      ],
      "name": "tokenOfOwnerByIndex",
      "outputs": [
        {
          "internalType": "uint256",
          "name": "",
          "type": "uint256"
        }
      ],
      "stateMutability": "view",
      "type": "function"
    },
    {
      "inputs": [
        {
          "internalType": "uint256",
          "name": "tokenId",
          "type": "uint256"
        }
      ],
      "name": "tokenURI",
      "outputs": [
        {
          "internalType": "string",
          "name": "",
          "type": "string"
        }
      ],
      "stateMutability": "view",
      "type": "function"
    },
    {
      "inputs": [],
      "name": "totalSupply",
      "outputs": [
        {
          "internalType": "uint256",
          "name": "",
          "type": "uint256"
        }
      ],
      "stateMutability": "view",
      "type": "function"
    },
    {
      "inputs": [
        {
          "internalType": "address",
          "name": "from",
          "type": "address"
        },
        {
          "internalType": "address",
          "name": "to",
          "type": "address"
        },
        {
          "internalType": "uint256",
          "name": "tokenId",
          "type": "uint256"
        }
      ],
      "name": "transferFrom",
      "outputs": [],
      "stateMutability": "nonpayable",
      "type": "function"
    },
    {
      "inputs": [
        {
          "internalType": "address",
          "name": "newOwner",
          "type": "address"
        }
      ],
      "name": "transferOwnership",
      "outputs": [],
      "stateMutability": "nonpayable",
      "type": "function"
    }
  ],
  "bytecode": "0x60806040523480156200001157600080fd5b50336040518060400160405280601081526020017f4576656e744365727469666963617465000000000000000000000000000000008152506040518060400160405280600281526020017f4543000000000000000000000000000000000000000000000000000000000000815250816000908162000090919062001556565b508060019081620000a2919062001556565b505050600073ffffffffffffffffffffffffffffffffffffffff168173ffffffffffffffffffffffffffffffffffffffff16036200011a5760006040517f1e4fbdf700000000000000000000000000000000000000000000000000000000815260040162000111919062001682565b60405180910390fd5b6200012b816200026260201b60201c565b506200013f3360016200032860201b60201c565b60405180608001604052806040518060400160405280600d81526020017f44656661756c74204576656e7400000000000000000000000000000000000000815250815260200160405180606001604052806023815260200162004e096023913981526020014281526020013373ffffffffffffffffffffffffffffffffffffffff16815250600c6000600181526020019081526020016000206000820151816000019081620001ef919062001556565b50602082015181600101908162000207919062001556565b506040820151816002015560608201518160030160006101000a81548173ffffffffffffffffffffffffffffffffffffffff021916908373ffffffffffffffffffffffffffffffffffffffff16021790555090505062001944565b6000600a60009054906101000a900473ffffffffffffffffffffffffffffffffffffffff16905081600a60006101000a81548173ffffffffffffffffffffffffffffffffffffffff021916908373ffffffffffffffffffffffffffffffffffffffff1602179055508173ffffffffffffffffffffffffffffffffffffffff168173ffffffffffffffffffffffffffffffffffffffff167f8be0079c531659141344cd1fd0a4f28419497f9722a3daafe3b4186f6b6457e060405160405180910390a35050565b6200034a8282604051806020016040528060008152506200034e60201b60201c565b5050565b6200036083836200037a60201b60201c565b6200037560008484846200048160201b60201c565b505050565b600073ffffffffffffffffffffffffffffffffffffffff168273ffffffffffffffffffffffffffffffffffffffff1603620003ef5760006040517f64a0ae92000000000000000000000000000000000000000000000000000000008152600401620003e6919062001682565b60405180910390fd5b600062000405838360006200064f60201b60201c565b9050600073ffffffffffffffffffffffffffffffffffffffff168173ffffffffffffffffffffffffffffffffffffffff16146200047c5760006040517f73c6ac6e00000000000000000000000000000000000000000000000000000000815260040162000473919062001682565b60405180910390fd5b505050565b60008373ffffffffffffffffffffffffffffffffffffffff163b111562000649578273ffffffffffffffffffffffffffffffffffffffff1663150b7a02620004ce6200079a60201b60201c565b8685856040518563ffffffff1660e01b8152600401620004f294939291906200174a565b6020604051808303816000875af19250505080156200053157506040513d601f19601f820116820180604052508101906200052e919062001800565b60015b620005bb573d806000811462000564576040519150601f19603f3d011682016040523d82523d6000602084013e62000569565b606091505b506000815103620005b357836040517f64a0ae92000000000000000000000000000000000000000000000000000000008152600401620005aa919062001682565b60405180910390fd5b805181602001fd5b63150b7a0260e01b7bffffffffffffffffffffffffffffffffffffffffffffffffffffffff1916817bffffffffffffffffffffffffffffffffffffffffffffffffffffffff1916146200064757836040517f64a0ae920000000000000000000000000000000000000000000000000000000081526004016200063e919062001682565b60405180910390fd5b505b50505050565b60008062000665858585620007a260201b60201c565b9050600073ffffffffffffffffffffffffffffffffffffffff168173ffffffffffffffffffffffffffffffffffffffff1603620006b357620006ad84620009d760201b60201c565b620006fb565b8473ffffffffffffffffffffffffffffffffffffffff168173ffffffffffffffffffffffffffffffffffffffff1614620006fa57620006f9818562000a2060201b60201c565b5b5b600073ffffffffffffffffffffffffffffffffffffffff168573ffffffffffffffffffffffffffffffffffffffff16036200074757620007418462000b8a60201b60201c565b6200078f565b8473ffffffffffffffffffffffffffffffffffffffff168173ffffffffffffffffffffffffffffffffffffffff16146200078e576200078d858562000c6660201b60201c565b5b5b809150509392505050565b600033905090565b600080620007b68462000cfb60201b60201c565b9050600073ffffffffffffffffffffffffffffffffffffffff168373ffffffffffffffffffffffffffffffffffffffff161462000801576200080081848662000d3860201b60201c565b5b600073ffffffffffffffffffffffffffffffffffffffff168173ffffffffffffffffffffffffffffffffffffffff16146200089b576200084c60008560008062000e0a60201b60201c565b6001600360008373ffffffffffffffffffffffffffffffffffffffff1673ffffffffffffffffffffffffffffffffffffffff168152602001908152602001600020600082825403925050819055505b600073ffffffffffffffffffffffffffffffffffffffff168573ffffffffffffffffffffffffffffffffffffffff16146200091f576001600360008773ffffffffffffffffffffffffffffffffffffffff1673ffffffffffffffffffffffffffffffffffffffff168152602001908152602001600020600082825401925050819055505b846002600086815260200190815260200160002060006101000a81548173ffffffffffffffffffffffffffffffffffffffff021916908373ffffffffffffffffffffffffffffffffffffffff160217905550838573ffffffffffffffffffffffffffffffffffffffff168273ffffffffffffffffffffffffffffffffffffffff167fddf252ad1be2c89b69c2b068fc378daa952ba7f163c4a11628f55a4df523b3ef60405160405180910390a4809150509392505050565b6008805490506009600083815260200190815260200160002081905550600881908060018154018082558091505060019003906000526020600020016000909190919091505550565b600062000a338362000fe760201b60201c565b905060006007600084815260200190815260200160002054905081811462000b19576000600660008673ffffffffffffffffffffffffffffffffffffffff1673ffffffffffffffffffffffffffffffffffffffff168152602001908152602001600020600084815260200190815260200160002054905080600660008773ffffffffffffffffffffffffffffffffffffffff1673ffffffffffffffffffffffffffffffffffffffff168152602001908152602001600020600084815260200190815260200160002081905550816007600083815260200190815260200160002081905550505b6007600084815260200190815260200160002060009055600660008573ffffffffffffffffffffffffffffffffffffffff1673ffffffffffffffffffffffffffffffffffffffff16815260200190815260200160002060008381526020019081526020016000206000905550505050565b6000600160088054905062000ba0919062001861565b905060006009600084815260200190815260200160002054905060006008838154811062000bd35762000bd26200189c565b5b90600052602060002001549050806008838154811062000bf85762000bf76200189c565b5b90600052602060002001819055508160096000838152602001908152602001600020819055506009600085815260200190815260200160002060009055600880548062000c4a5762000c49620018cb565b5b6001900381819060005260206000200160009055905550505050565b6000600162000c7b8462000fe760201b60201c565b62000c87919062001861565b905081600660008573ffffffffffffffffffffffffffffffffffffffff1673ffffffffffffffffffffffffffffffffffffffff168152602001908152602001600020600083815260200190815260200160002081905550806007600084815260200190815260200160002081905550505050565b60006002600083815260200190815260200160002060009054906101000a900473ffffffffffffffffffffffffffffffffffffffff169050919050565b62000d4b838383620010a460201b60201c565b62000e0557600073ffffffffffffffffffffffffffffffffffffffff168373ffffffffffffffffffffffffffffffffffffffff160362000dc457806040517f7e27328900000000000000000000000000000000000000000000000000000000815260040162000dbb9190620018fa565b60405180910390fd5b81816040517f177e802f00000000000000000000000000000000000000000000000000000000815260040162000dfc92919062001917565b60405180910390fd5b505050565b808062000e445750600073ffffffffffffffffffffffffffffffffffffffff168273ffffffffffffffffffffffffffffffffffffffff1614155b1562000f8f57600062000e5d846200117860201b60201c565b9050600073ffffffffffffffffffffffffffffffffffffffff168373ffffffffffffffffffffffffffffffffffffffff161415801562000ec957508273ffffffffffffffffffffffffffffffffffffffff168173ffffffffffffffffffffffffffffffffffffffff1614155b801562000ee5575062000ee381846200120b60201b60201c565b155b1562000f2a57826040517fa9fbf51f00000000000000000000000000000000000000000000000000000000815260040162000f21919062001682565b60405180910390fd5b811562000f8d57838573ffffffffffffffffffffffffffffffffffffffff168273ffffffffffffffffffffffffffffffffffffffff167f8c5be1e5ebec7d5bd14f71427d1e84f3dd0314c0f7b2291e5b200ac8c7c3b92560405160405180910390a45b505b836004600085815260200190815260200160002060006101000a81548173ffffffffffffffffffffffffffffffffffffffff021916908373ffffffffffffffffffffffffffffffffffffffff16021790555050505050565b60008073ffffffffffffffffffffffffffffffffffffffff168273ffffffffffffffffffffffffffffffffffffffff16036200105d5760006040517f89c62b6400000000000000000000000000000000000000000000000000000000815260040162001054919062001682565b60405180910390fd5b600360008373ffffffffffffffffffffffffffffffffffffffff1673ffffffffffffffffffffffffffffffffffffffff168152602001908152602001600020549050919050565b60008073ffffffffffffffffffffffffffffffffffffffff168373ffffffffffffffffffffffffffffffffffffffff16141580156200116f57508273ffffffffffffffffffffffffffffffffffffffff168473ffffffffffffffffffffffffffffffffffffffff1614806200112757506200112684846200120b60201b60201c565b5b806200116e57508273ffffffffffffffffffffffffffffffffffffffff1662001156836200129f60201b60201c565b73ffffffffffffffffffffffffffffffffffffffff16145b5b90509392505050565b6000806200118c8362000cfb60201b60201c565b9050600073ffffffffffffffffffffffffffffffffffffffff168173ffffffffffffffffffffffffffffffffffffffff16036200120257826040517f7e273289000000000000000000000000000000000000000000000000000000008152600401620011f99190620018fa565b60405180910390fd5b80915050919050565b6000600560008473ffffffffffffffffffffffffffffffffffffffff1673ffffffffffffffffffffffffffffffffffffffff16815260200190815260200160002060008373ffffffffffffffffffffffffffffffffffffffff1673ffffffffffffffffffffffffffffffffffffffff16815260200190815260200160002060009054906101000a900460ff16905092915050565b60006004600083815260200190815260200160002060009054906101000a900473ffffffffffffffffffffffffffffffffffffffff169050919050565b600081519050919050565b7f4e487b7100000000000000000000000000000000000000000000000000000000600052604160045260246000fd5b7f4e487b7100000000000000000000000000000000000000000000000000000000600052602260045260246000fd5b600060028204905060018216806200135e57607f821691505b60208210810362001374576200137362001316565b5b50919050565b60008190508160005260206000209050919050565b60006020601f8301049050919050565b600082821b905092915050565b600060088302620013de7fffffffffffffffffffffffffffffffffffffffffffffffffffffffffffffffff826200139f565b620013ea86836200139f565b95508019841693508086168417925050509392505050565b6000819050919050565b6000819050919050565b600062001437620014316200142b8462001402565b6200140c565b62001402565b9050919050565b6000819050919050565b620014538362001416565b6200146b62001462826200143e565b848454620013ac565b825550505050565b600090565b6200148262001473565b6200148f81848462001448565b505050565b5b81811015620014b757620014ab60008262001478565b60018101905062001495565b5050565b601f8211156200150657620014d0816200137a565b620014db846200138f565b81016020851015620014eb578190505b62001503620014fa856200138f565b83018262001494565b50505b505050565b600082821c905092915050565b60006200152b600019846008026200150b565b1980831691505092915050565b600062001546838362001518565b9150826002028217905092915050565b6200156182620012dc565b67ffffffffffffffff8111156200157d576200157c620012e7565b5b62001589825462001345565b62001596828285620014bb565b600060209050601f831160018114620015ce5760008415620015b9578287015190505b620015c5858262001538565b86555062001635565b601f198416620015de866200137a565b60005b828110156200160857848901518255600182019150602085019450602081019050620015e1565b8683101562001628578489015162001624601f89168262001518565b8355505b6001600288020188555050505b505050505050565b600073ffffffffffffffffffffffffffffffffffffffff82169050919050565b60006200166a826200163d565b9050919050565b6200167c816200165d565b82525050565b600060208201905062001699600083018462001671565b92915050565b620016aa8162001402565b82525050565b600081519050919050565b600082825260208201905092915050565b60005b83811015620016ec578082015181840152602081019050620016cf565b60008484015250505050565b6000601f19601f8301169050919050565b60006200171682620016b0565b620017228185620016bb565b935062001734818560208601620016cc565b6200173f81620016f8565b840191505092915050565b600060808201905062001761600083018762001671565b62001770602083018662001671565b6200177f60408301856200169f565b818103606083015262001793818462001709565b905095945050505050565b600080fd5b60007fffffffff0000000000000000000000000000000000000000000000000000000082169050919050565b620017da81620017a3565b8114620017e657600080fd5b50565b600081519050620017fa81620017cf565b92915050565b6000602082840312156200181957620018186200179e565b5b60006200182984828501620017e9565b91505092915050565b7f4e487b7100000000000000000000000000000000000000000000000000000000600052601160045260246000fd5b60006200186e8262001402565b91506200187b8362001402565b925082820390508181111562001896576200189562001832565b5b92915050565b7f4e487b7100000000000000000000000000000000000000000000000000000000600052603260045260246000fd5b7f4e487b7100000000000000000000000000000000000000000000000000000000600052603160045260246000fd5b60006020820190506200191160008301846200169f565b92915050565b60006040820190506200192e600083018562001671565b6200193d60208301846200169f565b9392505050565b6134b580620019546000396000f3fe608060405234801561001057600080fd5b506004361061014d5760003560e01c806370a08231116100c3578063a22cb4651161007c578063a22cb465146103c9578063ae3997e9146103e5578063b88d4fde14610401578063c87b56dd1461041d578063e985e9c51461044d578063f2fde38b1461047d5761014d565b806370a0823114610305578063715018a61461033557806375794a3c1461033f57806382260f351461035d5780638da5cb5b1461038d57806395d89b41146103ab5761014d565b806323b872dd1161011557806323b872dd1461020a5780632f745c591461022657806342842e0e146102565780634f6ccce71461027257806355b0b56a146102a25780636352211e146102d55761014d565b806301ffc9a71461015257806306fdde0314610182578063081812fc146101a0578063095ea7b3146101d057806318160ddd146101ec575b600080fd5b61016c6004803603810190610167919061254d565b610499565b6040516101799190612595565b60405180910390f35b61018a610513565b6040516101979190612640565b60405180910390f35b6101ba60048036038101906101b59190612698565b6105a5565b6040516101c79190612706565b60405180910390f35b6101ea60048036038101906101e5919061274d565b6105c1565b005b6101f46105d7565b604051610201919061279c565b60405180910390f35b610224600480360381019061021f91906127b7565b6105e4565b005b610240600480360381019061023b919061274d565b6106e6565b60405161024d919061279c565b60405180910390f35b610270600480360381019061026b91906127b7565b61078f565b005b61028c60048036038101906102879190612698565b6107af565b604051610299919061279c565b60405180910390f35b6102bc60048036038101906102b79190612698565b610825565b6040516102cc949392919061280a565b60405180910390f35b6102ef60048036038101906102ea9190612698565b610985565b6040516102fc9190612706565b60405180910390f35b61031f600480360381019061031a919061285d565b610997565b60405161032c919061279c565b60405180910390f35b61033d610a51565b005b610347610a65565b604051610354919061279c565b60405180910390f35b61037760048036038101906103729190612698565b610a6b565b604051610384919061295c565b60405180910390f35b610395610c1c565b6040516103a29190612706565b60405180910390f35b6103b3610c46565b6040516103c09190612640565b60405180910390f35b6103e360048036038101906103de91906129aa565b610cd8565b005b6103ff60048036038101906103fa919061285d565b610cee565b005b61041b60048036038101906104169190612b1f565b610e36565b005b61043760048036038101906104329190612698565b610e53565b6040516104449190612640565b60405180910390f35b61046760048036038101906104629190612ba2565b611091565b6040516104749190612595565b60405180910390f35b6104976004803603810190610492919061285d565b611125565b005b60007f780e9d63000000000000000000000000000000000000000000000000000000007bffffffffffffffffffffffffffffffffffffffffffffffffffffffff1916827bffffffffffffffffffffffffffffffffffffffffffffffffffffffff1916148061050c575061050b826111ab565b5b9050919050565b60606000805461052290612c11565b80601f016020809104026020016040519081016040528092919081815260200182805461054e90612c11565b801561059b5780601f106105705761010080835404028352916020019161059b565b820191906000526020600020905b81548152906001019060200180831161057e57829003601f168201915b5050505050905090565b60006105b08261128d565b506105ba82611315565b9050919050565b6105d382826105ce611352565b61135a565b5050565b6000600880549050905090565b600073ffffffffffffffffffffffffffffffffffffffff168273ffffffffffffffffffffffffffffffffffffffff16036106565760006040517f64a0ae9200000000000000000000000000000000000000000000000000000000815260040161064d9190612706565b60405180910390fd5b600061066a8383610665611352565b61136c565b90508373ffffffffffffffffffffffffffffffffffffffff168173ffffffffffffffffffffffffffffffffffffffff16146106e0578382826040517f64283d7b0000000000000000000000000000000000000000000000000000000081526004016106d793929190612c42565b60405180910390fd5b50505050565b60006106f183610997565b82106107365782826040517fa57d13dc00000000000000000000000000000000000000000000000000000000815260040161072d929190612c79565b60405180910390fd5b600660008473ffffffffffffffffffffffffffffffffffffffff1673ffffffffffffffffffffffffffffffffffffffff168152602001908152602001600020600083815260200190815260200160002054905092915050565b6107aa83838360405180602001604052806000815250610e36565b505050565b60006107b96105d7565b82106107ff576000826040517fa57d13dc0000000000000000000000000000000000000000000000000000000081526004016107f6929190612c79565b60405180910390fd5b6008828154811061081357610812612ca2565b5b90600052602060002001549050919050565b600c60205280600052604060002060009150905080600001805461084890612c11565b80601f016020809104026020016040519081016040528092919081815260200182805461087490612c11565b80156108c15780601f10610896576101008083540402835291602001916108c1565b820191906000526020600020905b8154815290600101906020018083116108a457829003601f168201915b5050505050908060010180546108d690612c11565b80601f016020809104026020016040519081016040528092919081815260200182805461090290612c11565b801561094f5780601f106109245761010080835404028352916020019161094f565b820191906000526020600020905b81548152906001019060200180831161093257829003601f168201915b5050505050908060020154908060030160009054906101000a900473ffffffffffffffffffffffffffffffffffffffff16905084565b60006109908261128d565b9050919050565b60008073ffffffffffffffffffffffffffffffffffffffff168273ffffffffffffffffffffffffffffffffffffffff1603610a0a5760006040517f89c62b64000000000000000000000000000000000000000000000000000000008152600401610a019190612706565b60405180910390fd5b600360008373ffffffffffffffffffffffffffffffffffffffff1673ffffffffffffffffffffffffffffffffffffffff168152602001908152602001600020549050919050565b610a59611489565b610a636000611510565b565b600b5481565b610a736124a3565b600c6000838152602001908152602001600020604051806080016040529081600082018054610aa190612c11565b80601f0160208091040260200160405190810160405280929190818152602001828054610acd90612c11565b8015610b1a5780601f10610aef57610100808354040283529160200191610b1a565b820191906000526020600020905b815481529060010190602001808311610afd57829003601f168201915b50505050508152602001600182018054610b3390612c11565b80601f0160208091040260200160405190810160405280929190818152602001828054610b5f90612c11565b8015610bac5780601f10610b8157610100808354040283529160200191610bac565b820191906000526020600020905b815481529060010190602001808311610b8f57829003601f168201915b50505050508152602001600282015481526020016003820160009054906101000a900473ffffffffffffffffffffffffffffffffffffffff1673ffffffffffffffffffffffffffffffffffffffff1673ffffffffffffffffffffffffffffffffffffffff16815250509050919050565b6000600a60009054906101000a900473ffffffffffffffffffffffffffffffffffffffff16905090565b606060018054610c5590612c11565b80601f0160208091040260200160405190810160405280929190818152602001828054610c8190612c11565b8015610cce5780601f10610ca357610100808354040283529160200191610cce565b820191906000526020600020905b815481529060010190602001808311610cb157829003601f168201915b5050505050905090565b610cea610ce3611352565b83836115d6565b5050565b610cf6611489565b6000600b6000815480929190610d0b90612d00565b919050559050610d1b8282611745565b60405180608001604052806040518060400160405280601081526020017f507265646566696e6564204576656e7400000000000000000000000000000000815250815260200160405180606001604052806026815260200161345a6026913981526020014281526020018373ffffffffffffffffffffffffffffffffffffffff16815250600c60008381526020019081526020016000206000820151816000019081610dc79190612ef4565b506020820151816001019081610ddd9190612ef4565b506040820151816002015560608201518160030160006101000a81548173ffffffffffffffffffffffffffffffffffffffff021916908373ffffffffffffffffffffffffffffffffffffffff1602179055509050505050565b610e418484846105e4565b610e4d84848484611763565b50505050565b60606000600c6000848152602001908152602001600020604051806080016040529081600082018054610e8590612c11565b80601f0160208091040260200160405190810160405280929190818152602001828054610eb190612c11565b8015610efe5780601f10610ed357610100808354040283529160200191610efe565b820191906000526020600020905b815481529060010190602001808311610ee157829003601f168201915b50505050508152602001600182018054610f1790612c11565b80601f0160208091040260200160405190810160405280929190818152602001828054610f4390612c11565b8015610f905780601f10610f6557610100808354040283529160200191610f90565b820191906000526020600020905b815481529060010190602001808311610f7357829003601f168201915b50505050508152602001600282015481526020016003820160009054906101000a900473ffffffffffffffffffffffffffffffffffffffff1673ffffffffffffffffffffffffffffffffffffffff1673ffffffffffffffffffffffffffffffffffffffff168152505090506000816000015182602001516040518060400160405280601681526020017f68747470733a2f2f6962622e636f2f7a5a634d6272520000000000000000000081525060405160200161104f93929190613132565b60405160208183030381529060405290506110698161191a565b60405160200161107991906131db565b60405160208183030381529060405292505050919050565b6000600560008473ffffffffffffffffffffffffffffffffffffffff1673ffffffffffffffffffffffffffffffffffffffff16815260200190815260200160002060008373ffffffffffffffffffffffffffffffffffffffff1673ffffffffffffffffffffffffffffffffffffffff16815260200190815260200160002060009054906101000a900460ff16905092915050565b61112d611489565b600073ffffffffffffffffffffffffffffffffffffffff168173ffffffffffffffffffffffffffffffffffffffff160361119f5760006040517f1e4fbdf70000000000000000000000000000000000000000000000000000000081526004016111969190612706565b60405180910390fd5b6111a881611510565b50565b60007f80ac58cd000000000000000000000000000000000000000000000000000000007bffffffffffffffffffffffffffffffffffffffffffffffffffffffff1916827bffffffffffffffffffffffffffffffffffffffffffffffffffffffff1916148061127657507f5b5e139f000000000000000000000000000000000000000000000000000000007bffffffffffffffffffffffffffffffffffffffffffffffffffffffff1916827bffffffffffffffffffffffffffffffffffffffffffffffffffffffff1916145b80611286575061128582611a7d565b5b9050919050565b60008061129983611ae7565b9050600073ffffffffffffffffffffffffffffffffffffffff168173ffffffffffffffffffffffffffffffffffffffff160361130c57826040517f7e273289000000000000000000000000000000000000000000000000000000008152600401611303919061279c565b60405180910390fd5b80915050919050565b60006004600083815260200190815260200160002060009054906101000a900473ffffffffffffffffffffffffffffffffffffffff169050919050565b600033905090565b6113678383836001611b24565b505050565b60008061137a858585611ce9565b9050600073ffffffffffffffffffffffffffffffffffffffff168173ffffffffffffffffffffffffffffffffffffffff16036113be576113b984611f03565b6113fd565b8473ffffffffffffffffffffffffffffffffffffffff168173ffffffffffffffffffffffffffffffffffffffff16146113fc576113fb8185611f4c565b5b5b600073ffffffffffffffffffffffffffffffffffffffff168573ffffffffffffffffffffffffffffffffffffffff160361143f5761143a846120ad565b61147e565b8473ffffffffffffffffffffffffffffffffffffffff168173ffffffffffffffffffffffffffffffffffffffff161461147d5761147c858561217e565b5b5b809150509392505050565b611491611352565b73ffffffffffffffffffffffffffffffffffffffff166114af610c1c565b73ffffffffffffffffffffffffffffffffffffffff161461150e576114d2611352565b6040517f118cdaa70000000000000000000000000000000000000000000000000000000081526004016115059190612706565b60405180910390fd5b565b6000600a60009054906101000a900473ffffffffffffffffffffffffffffffffffffffff16905081600a60006101000a81548173ffffffffffffffffffffffffffffffffffffffff021916908373ffffffffffffffffffffffffffffffffffffffff1602179055508173ffffffffffffffffffffffffffffffffffffffff168173ffffffffffffffffffffffffffffffffffffffff167f8be0079c531659141344cd1fd0a4f28419497f9722a3daafe3b4186f6b6457e060405160405180910390a35050565b600073ffffffffffffffffffffffffffffffffffffffff168273ffffffffffffffffffffffffffffffffffffffff160361164757816040517f5b08ba1800000000000000000000000000000000000000000000000000000000815260040161163e9190612706565b60405180910390fd5b80600560008573ffffffffffffffffffffffffffffffffffffffff1673ffffffffffffffffffffffffffffffffffffffff16815260200190815260200160002060008473ffffffffffffffffffffffffffffffffffffffff1673ffffffffffffffffffffffffffffffffffffffff16815260200190815260200160002060006101000a81548160ff0219169083151502179055508173ffffffffffffffffffffffffffffffffffffffff168373ffffffffffffffffffffffffffffffffffffffff167f17307eab39ab6107e8899845ad3d59bd9653f200f220920489ca2b5937696c31836040516117389190612595565b60405180910390a3505050565b61175f828260405180602001604052806000815250612209565b5050565b60008373ffffffffffffffffffffffffffffffffffffffff163b1115611914578273ffffffffffffffffffffffffffffffffffffffff1663150b7a026117a7611352565b8685856040518563ffffffff1660e01b81526004016117c99493929190613252565b6020604051808303816000875af192505050801561180557506040513d601f19601f8201168201806040525081019061180291906132b3565b60015b611889573d8060008114611835576040519150601f19603f3d011682016040523d82523d6000602084013e61183a565b606091505b50600081510361188157836040517f64a0ae920000000000000000000000000000000000000000000000000000000081526004016118789190612706565b60405180910390fd5b805181602001fd5b63150b7a0260e01b7bffffffffffffffffffffffffffffffffffffffffffffffffffffffff1916817bffffffffffffffffffffffffffffffffffffffffffffffffffffffff19161461191257836040517f64a0ae920000000000000000000000000000000000000000000000000000000081526004016119099190612706565b60405180910390fd5b505b50505050565b6060600082510361193c57604051806020016040528060008152509050611a78565b600060405180606001604052806040815260200161341a604091399050600060036002855161196b91906132e0565b6119759190613343565b60046119819190613374565b67ffffffffffffffff81111561199a576119996129f4565b5b6040519080825280601f01601f1916602001820160405280156119cc5781602001600182028036833780820191505090505b509050600182016020820185865187015b80821015611a38576003820191508151603f8160121c168501518453600184019350603f81600c1c168501518453600184019350603f8160061c168501518453600184019350603f81168501518453600184019350506119dd565b5050600386510660018114611a545760028114611a6757611a6f565b603d6001830353603d6002830353611a6f565b603d60018303535b50505080925050505b919050565b60007f01ffc9a7000000000000000000000000000000000000000000000000000000007bffffffffffffffffffffffffffffffffffffffffffffffffffffffff1916827bffffffffffffffffffffffffffffffffffffffffffffffffffffffff1916149050919050565b60006002600083815260200190815260200160002060009054906101000a900473ffffffffffffffffffffffffffffffffffffffff169050919050565b8080611b5d5750600073ffffffffffffffffffffffffffffffffffffffff168273ffffffffffffffffffffffffffffffffffffffff1614155b15611c91576000611b6d8461128d565b9050600073ffffffffffffffffffffffffffffffffffffffff168373ffffffffffffffffffffffffffffffffffffffff1614158015611bd857508273ffffffffffffffffffffffffffffffffffffffff168173ffffffffffffffffffffffffffffffffffffffff1614155b8015611beb5750611be98184611091565b155b15611c2d57826040517fa9fbf51f000000000000000000000000000000000000000000000000000000008152600401611c249190612706565b60405180910390fd5b8115611c8f57838573ffffffffffffffffffffffffffffffffffffffff168273ffffffffffffffffffffffffffffffffffffffff167f8c5be1e5ebec7d5bd14f71427d1e84f3dd0314c0f7b2291e5b200ac8c7c3b92560405160405180910390a45b505b836004600085815260200190815260200160002060006101000a81548173ffffffffffffffffffffffffffffffffffffffff021916908373ffffffffffffffffffffffffffffffffffffffff16021790555050505050565b600080611cf584611ae7565b9050600073ffffffffffffffffffffffffffffffffffffffff168373ffffffffffffffffffffffffffffffffffffffff1614611d3757611d36818486612225565b5b600073ffffffffffffffffffffffffffffffffffffffff168173ffffffffffffffffffffffffffffffffffffffff1614611dc857611d79600085600080611b24565b6001600360008373ffffffffffffffffffffffffffffffffffffffff1673ffffffffffffffffffffffffffffffffffffffff168152602001908152602001600020600082825403925050819055505b600073ffffffffffffffffffffffffffffffffffffffff168573ffffffffffffffffffffffffffffffffffffffff1614611e4b576001600360008773ffffffffffffffffffffffffffffffffffffffff1673ffffffffffffffffffffffffffffffffffffffff168152602001908152602001600020600082825401925050819055505b846002600086815260200190815260200160002060006101000a81548173ffffffffffffffffffffffffffffffffffffffff021916908373ffffffffffffffffffffffffffffffffffffffff160217905550838573ffffffffffffffffffffffffffffffffffffffff168273ffffffffffffffffffffffffffffffffffffffff167fddf252ad1be2c89b69c2b068fc378daa952ba7f163c4a11628f55a4df523b3ef60405160405180910390a4809150509392505050565b6008805490506009600083815260200190815260200160002081905550600881908060018154018082558091505060019003906000526020600020016000909190919091505550565b6000611f5783610997565b905060006007600084815260200190815260200160002054905081811461203c576000600660008673ffffffffffffffffffffffffffffffffffffffff1673ffffffffffffffffffffffffffffffffffffffff168152602001908152602001600020600084815260200190815260200160002054905080600660008773ffffffffffffffffffffffffffffffffffffffff1673ffffffffffffffffffffffffffffffffffffffff168152602001908152602001600020600084815260200190815260200160002081905550816007600083815260200190815260200160002081905550505b6007600084815260200190815260200160002060009055600660008573ffffffffffffffffffffffffffffffffffffffff1673ffffffffffffffffffffffffffffffffffffffff16815260200190815260200160002060008381526020019081526020016000206000905550505050565b600060016008805490506120c191906133b6565b90506000600960008481526020019081526020016000205490506000600883815481106120f1576120f0612ca2565b5b90600052602060002001549050806008838154811061211357612112612ca2565b5b906000526020600020018190555081600960008381526020019081526020016000208190555060096000858152602001908152602001600020600090556008805480612162576121616133ea565b5b6001900381819060005260206000200160009055905550505050565b6000600161218b84610997565b61219591906133b6565b905081600660008573ffffffffffffffffffffffffffffffffffffffff1673ffffffffffffffffffffffffffffffffffffffff168152602001908152602001600020600083815260200190815260200160002081905550806007600084815260200190815260200160002081905550505050565b61221383836122e9565b6122206000848484611763565b505050565b6122308383836123e2565b6122e457600073ffffffffffffffffffffffffffffffffffffffff168373ffffffffffffffffffffffffffffffffffffffff16036122a557806040517f7e27328900000000000000000000000000000000000000000000000000000000815260040161229c919061279c565b60405180910390fd5b81816040517f177e802f0000000000000000000000000000000000000000000000000000000081526004016122db929190612c79565b60405180910390fd5b505050565b600073ffffffffffffffffffffffffffffffffffffffff168273ffffffffffffffffffffffffffffffffffffffff160361235b5760006040517f64a0ae920000000000000000000000000000000000000000000000000000000081526004016123529190612706565b60405180910390fd5b60006123698383600061136c565b9050600073ffffffffffffffffffffffffffffffffffffffff168173ffffffffffffffffffffffffffffffffffffffff16146123dd5760006040517f73c6ac6e0000000000000000000000000000000000000000000000000000000081526004016123d49190612706565b60405180910390fd5b505050565b60008073ffffffffffffffffffffffffffffffffffffffff168373ffffffffffffffffffffffffffffffffffffffff161415801561249a57508273ffffffffffffffffffffffffffffffffffffffff168473ffffffffffffffffffffffffffffffffffffffff16148061245b575061245a8484611091565b5b8061249957508273ffffffffffffffffffffffffffffffffffffffff1661248183611315565b73ffffffffffffffffffffffffffffffffffffffff16145b5b90509392505050565b6040518060800160405280606081526020016060815260200160008152602001600073ffffffffffffffffffffffffffffffffffffffff1681525090565b6000604051905090565b600080fd5b600080fd5b60007fffffffff0000000000000000000000000000000000000000000000000000000082169050919050565b61252a816124f5565b811461253557600080fd5b50565b60008135905061254781612521565b92915050565b600060208284031215612563576125626124eb565b5b600061257184828501612538565b91505092915050565b60008115159050919050565b61258f8161257a565b82525050565b60006020820190506125aa6000830184612586565b92915050565b600081519050919050565b600082825260208201905092915050565b60005b838110156125ea5780820151818401526020810190506125cf565b60008484015250505050565b6000601f19601f8301169050919050565b6000612612826125b0565b61261c81856125bb565b935061262c8185602086016125cc565b612635816125f6565b840191505092915050565b6000602082019050818103600083015261265a8184612607565b905092915050565b6000819050919050565b61267581612662565b811461268057600080fd5b50565b6000813590506126928161266c565b92915050565b6000602082840312156126ae576126ad6124eb565b5b60006126bc84828501612683565b91505092915050565b600073ffffffffffffffffffffffffffffffffffffffff82169050919050565b60006126f0826126c5565b9050919050565b612700816126e5565b82525050565b600060208201905061271b60008301846126f7565b92915050565b61272a816126e5565b811461273557600080fd5b50565b60008135905061274781612721565b92915050565b60008060408385031215612764576127636124eb565b5b600061277285828601612738565b925050602061278385828601612683565b9150509250929050565b61279681612662565b82525050565b60006020820190506127b1600083018461278d565b92915050565b6000806000606084860312156127d0576127cf6124eb565b5b60006127de86828701612738565b93505060206127ef86828701612738565b925050604061280086828701612683565b9150509250925092565b600060808201905081810360008301526128248187612607565b905081810360208301526128388186612607565b9050612847604083018561278d565b61285460608301846126f7565b95945050505050565b600060208284031215612873576128726124eb565b5b600061288184828501612738565b91505092915050565b600082825260208201905092915050565b60006128a6826125b0565b6128b0818561288a565b93506128c08185602086016125cc565b6128c9816125f6565b840191505092915050565b6128dd81612662565b82525050565b6128ec816126e5565b82525050565b6000608083016000830151848203600086015261290f828261289b565b91505060208301518482036020860152612929828261289b565b915050604083015161293e60408601826128d4565b50606083015161295160608601826128e3565b508091505092915050565b6000602082019050818103600083015261297681846128f2565b905092915050565b6129878161257a565b811461299257600080fd5b50565b6000813590506129a48161297e565b92915050565b600080604083850312156129c1576129c06124eb565b5b60006129cf85828601612738565b92505060206129e085828601612995565b9150509250929050565b600080fd5b600080fd5b7f4e487b7100000000000000000000000000000000000000000000000000000000600052604160045260246000fd5b612a2c826125f6565b810181811067ffffffffffffffff82111715612a4b57612a4a6129f4565b5b80604052505050565b6000612a5e6124e1565b9050612a6a8282612a23565b919050565b600067ffffffffffffffff821115612a8a57612a896129f4565b5b612a93826125f6565b9050602081019050919050565b82818337600083830152505050565b6000612ac2612abd84612a6f565b612a54565b905082815260208101848484011115612ade57612add6129ef565b5b612ae9848285612aa0565b509392505050565b600082601f830112612b0657612b056129ea565b5b8135612b16848260208601612aaf565b91505092915050565b60008060008060808587031215612b3957612b386124eb565b5b6000612b4787828801612738565b9450506020612b5887828801612738565b9350506040612b6987828801612683565b925050606085013567ffffffffffffffff811115612b8a57612b896124f0565b5b612b9687828801612af1565b91505092959194509250565b60008060408385031215612bb957612bb86124eb565b5b6000612bc785828601612738565b9250506020612bd885828601612738565b9150509250929050565b7f4e487b7100000000000000000000000000000000000000000000000000000000600052602260045260246000fd5b60006002820490506001821680612c2957607f821691505b602082108103612c3c57612c3b612be2565b5b50919050565b6000606082019050612c5760008301866126f7565b612c64602083018561278d565b612c7160408301846126f7565b949350505050565b6000604082019050612c8e60008301856126f7565b612c9b602083018461278d565b9392505050565b7f4e487b7100000000000000000000000000000000000000000000000000000000600052603260045260246000fd5b7f4e487b7100000000000000000000000000000000000000000000000000000000600052601160045260246000fd5b6000612d0b82612662565b91507fffffffffffffffffffffffffffffffffffffffffffffffffffffffffffffffff8203612d3d57612d3c612cd1565b5b600182019050919050565b60008190508160005260206000209050919050565b60006020601f8301049050919050565b600082821b905092915050565b600060088302612daa7fffffffffffffffffffffffffffffffffffffffffffffffffffffffffffffffff82612d6d565b612db48683612d6d565b95508019841693508086168417925050509392505050565b6000819050919050565b6000612df1612dec612de784612662565b612dcc565b612662565b9050919050565b6000819050919050565b612e0b83612dd6565b612e1f612e1782612df8565b848454612d7a565b825550505050565b600090565b612e34612e27565b612e3f818484612e02565b505050565b5b81811015612e6357612e58600082612e2c565b600181019050612e45565b5050565b601f821115612ea857612e7981612d48565b612e8284612d5d565b81016020851015612e91578190505b612ea5612e9d85612d5d565b830182612e44565b50505b505050565b600082821c905092915050565b6000612ecb60001984600802612ead565b1980831691505092915050565b6000612ee48383612eba565b9150826002028217905092915050565b612efd826125b0565b67ffffffffffffffff811115612f1657612f156129f4565b5b612f208254612c11565b612f2b828285612e67565b600060209050601f831160018114612f5e5760008415612f4c578287015190505b612f568582612ed8565b865550612fbe565b601f198416612f6c86612d48565b60005b82811015612f9457848901518255600182019150602085019450602081019050612f6f565b86831015612fb15784890151612fad601f891682612eba565b8355505b6001600288020188555050505b505050505050565b600081905092915050565b7f7b226e616d65223a202200000000000000000000000000000000000000000000600082015250565b6000613007600a83612fc6565b915061301282612fd1565b600a82019050919050565b6000613028826125b0565b6130328185612fc6565b93506130428185602086016125cc565b80840191505092915050565b7f222c20226465736372697074696f6e223a202200000000000000000000000000600082015250565b6000613084601383612fc6565b915061308f8261304e565b601382019050919050565b7f222c2022696d616765223a202200000000000000000000000000000000000000600082015250565b60006130d0600d83612fc6565b91506130db8261309a565b600d82019050919050565b7f222c202261747472696275746573223a205b5d7d000000000000000000000000600082015250565b600061311c601483612fc6565b9150613127826130e6565b601482019050919050565b600061313d82612ffa565b9150613149828661301d565b915061315482613077565b9150613160828561301d565b915061316b826130c3565b9150613177828461301d565b91506131828261310f565b9150819050949350505050565b7f646174613a6170706c69636174696f6e2f6a736f6e3b6261736536342c000000600082015250565b60006131c5601d83612fc6565b91506131d08261318f565b601d82019050919050565b60006131e6826131b8565b91506131f2828461301d565b915081905092915050565b600081519050919050565b600082825260208201905092915050565b6000613224826131fd565b61322e8185613208565b935061323e8185602086016125cc565b613247816125f6565b840191505092915050565b600060808201905061326760008301876126f7565b61327460208301866126f7565b613281604083018561278d565b81810360608301526132938184613219565b905095945050505050565b6000815190506132ad81612521565b92915050565b6000602082840312156132c9576132c86124eb565b5b60006132d78482850161329e565b91505092915050565b60006132eb82612662565b91506132f683612662565b925082820190508082111561330e5761330d612cd1565b5b92915050565b7f4e487b7100000000000000000000000000000000000000000000000000000000600052601260045260246000fd5b600061334e82612662565b915061335983612662565b92508261336957613368613314565b5b828204905092915050565b600061337f82612662565b915061338a83612662565b925082820261339881612662565b915082820484148315176133af576133ae612cd1565b5b5092915050565b60006133c182612662565b91506133cc83612662565b92508282039050818111156133e4576133e3612cd1565b5b92915050565b7f4e487b7100000000000000000000000000000000000000000000000000000000600052603160045260246000fdfe4142434445464748494a4b4c4d4e4f505152535455565758595a6162636465666768696a6b6c6d6e6f707172737475767778797a303132333435363738392b2f54686973206973206120707265646566696e6564206576656e74206465736372697074696f6ea264697066735822122007b6c495dd3d07177ea6737a6bfc3e41e3eaae3b6f8737488190cce4ed30b89d64736f6c634300081400335468697320697320612064656661756c74206576656e74206465736372697074696f6e",
  "linkReferences": {},
  "deployedLinkReferences": {}
}